S0250000736D617274736F6E69632D68656C6C6F63686972702D6578616D706C652E737265634C
S21440000030390020C151400091524000915240008A
S2144000109152400091524000915240000000000032
S2144000200000000000000000000000009152400068
S2144000309152400000000000915240009152400012
S21440004091524000915240009152400005134000AA
S21440005091524000915240009152400091524000CF
S2144000609152400069114000000000005D104000C1
S214400070993F4000915240009152400091524000BA
S2144000809152400091524000915240007D114000F4
S2144000909152400091524000915240001D13400042
S2144000A02D13400091524000915240009152400022
S2144000B091524000B536400091524000000000008A
S2144000C000000000000000000000000000000000EB
S2144000D000000000000000000000000000000000DB
S2144000E000000000000000000000000000000000CB
S2144000F00000000000000000000000009152400098
S2144001009152400091524000000000000000000064
S214400110000000000000000000000000000000009A
S214400120000000000000000000000000000000008A
S214400130000000000000000000000000000000007A
S214400140000000000000000010B5054C237833B9CD
S214400150044B13B10448AFF300800123237010BD55
S214400160480300200000000098CF40000C4B43B1ED
S2144001700C480D4910B5AFF300800C48036823B90E
S21440018010BD0A48036833B97047094B002BF7D0B7
S214400190BDE810401847064B002BF5D0184700BF67
S2144001A00000000098CF40004C03002098CF40004D
S2144001B0000000002DE9F0438FB004AF904B3B6247
S2144001C0002387F82730386A8E4B98478E488F4BE7
S2144001D098478F4A8F4990488C4B984700230B226C
S2144001E001218E48894CA0470223012202218C48D7
S2144001F0864CA0478B48854B9847386A8A4B984729
S2144002000346FB778948814B9847002387F826307A
S2144002101AE097F82630D82202FB03F3844A1344A8
S214400220BB6197F82620834B396AB869824CA04751
S21440023003461A4697F82730134387F8273097F82F
S2144002402630013387F8263097F82620FB7F9A42DF
S214400250DFD397F82730002B08D178486B4B984768
S214400260386A774B9847034687F8273097F8273001
S214400270002B03D17348654B984705E097F8273025
S21440028019467148614B98476648604B98476F4897
S2144002905E4B9847002387F8263033E097F82630A1
S2144002A01946386A6A4B984778617869694B984727
S2144002B00346002B21D097F826407869664B98472E
S2144002C0034698467869654B984781467869644BFB
S2144002D0984703461D467869624B984703461E4634
S2144002E07869614B984703460293019600954B46C2
S2144002F0424621465D48454CA04797F82630013394
S21440030087F8263097F82620FB7F9A42C6D3454882
S2144003103E4B98475649386A564B98475649386A2E
S214400320564B98475648394B9847002387F826300F
S214400330CCE097F826301946386A454B98473861DE
S2144003403869444B98470346002B00F0BA804D4B23
S2144003501B780133DAB24B4B1A7097F826300122DD
S21440036002FA03F31A46484B1B681343464A136087
S214400370444B1B78012B02D110233B7001E0202315
S2144003803B703B78022B05D0404B1B780133DAB2EA
S2144003903E4B1A7041F288337B800023BB803B780B
S2144003A0022B03D14FF47A73FB8001E00023FB80DD
S2144003B03869294B98470346C92B02D1344BBB605A
S2144003C001E00023BB603B4619463869314B9847ED
S2144003D0034687F8273097F82730002B08D13B781C
S2144003E0022B05D138692C4B984738692B4B9847D8
S2144003F097F82730002B55D13869294B984757E056
S2144004003C040020091F40006CC04000319440006E
S214400410A4C04000B0C04000BCC04000D8C04000AF
S214400420F0C0400010C140008B59400014C140004D
S21440043010050020155540001957400030C14000B7
S214400440B158400044C1400048C1400054C140003B
S21440045037594000ED584000055940007B5B40004E
S214400460AD5B4000935B4000A359400080C1400014
S214400470A9054000435D40003D0640005F5D4000EA
S2144004809CC14000700300206803002071030020D8
S214400490FC000020B95740000D204000BD2340001E
S2144004A06106400097F8263019462648264B98475E
S2144004B097F82730002B04D197F826301846234B60
S2144004C0984797F82630013387F8263097F8262045
S2144004D0FB7F9A42FFF42DAF1D481B4B98470121E6
S2144004E0386A1C4B98471C4B1B78002B10D04FF497
S2144004F07A711A48144B984719494FF47A70194B39
S2144005009847194B9847194B984719480E4B9847A8
S21440051018480D4B9847184B1B68002B01D1174BBA
S2144005209847154B1B6803F00103002BF3D0124B82
S2144005301B6823F00103104A1360386A104B984733
S214400540E9E700BFB8C1400031944000492E400062
S21440055010C14000D95D400071030020E4C1400056
S214400560850540003D2B4000852D4000AD2D4000C8
S21440057044C1400014C2400064030020352E4000B1
S2144005803908400080B500AF044B1B78002B02D0E2
S2144005900348044B984700BF80BD00BF710300204E
S2144005A03C040020D158400080B584B000AF78604D
S2144005B00B46FB70FB7819467868184B9847F860EE
S2144005C0FB78012202FA03F31A46154B1B681343C5
S2144005D0134A1360124B1A68124B1B689A4218D182
S2144005E00F4B00221A60104B1B6843F001030E4A63
S2144005F01360F8680D4B98470346022B06D1F868FF
S2144006000B4B984778680B4B984702E078680A4B44
S214400610984700BF1037BD4680BD00BF37594000E1
S2144006206C0300206803002064030020BB59400090
S2144006300D204000712340001D24400080B483B04C
S21440064000AF7860054B1B6843F00203034A136013
S21440065000BF0C37BD465DF8047B7047640300203E
S21440066090B591B000AF78607868624B9847034683
S21440067087F8333007F12003194678685E4B984771
S214400680034687F83F3097F83F30002B40F0A58070
S21440069097F82030202B51D801A252F823F000BF03
S2144006A0250740003D0740002B0740003D0740001F
S2144006B03D0740003D0740003D0740003D074000E5
S2144006C03D0740003D0740003D0740003D074000D5
S2144006D03D0740003D0740003D0740003D074000C5
S2144006E0310740003D0740003D0740003D074000C1
S2144006F03D0740003D0740003D0740003D074000A5
S2144007003D0740003D0740003D0740003D07400094
S2144007103D0740003D0740003D0740003D07400084
S21440072037074000354BBB630AE0354BBB6307E0F9
S214400730344BBB6304E0344BBB6301E0334BBB63D9
S21440074097F833107B8C1A46BB6B3148314CA04728
S214400750BB8C002B04D0BB8C19462F482D4B98479A
S21440076078682E4B98470346C92B32D107F10803C9
S214400770194678682A4B9847034687F83F3097F8DB
S2144007803F30002B1FD12748224B984700237B63DE
S21440079015E07B6B9B0007F14002134433F8383C6E
S2144007A01A467B6B9B0007F140010B4433F8363CFE
S2144007B0796B1D48174CA0477B6B01337B637B6B83
S2144007C0052BE6DD05E097F8333019461748114B00
S2144007D0984717480F4B984705E097F83330194627
S2144007E014480C4B984797F83F3018464437BD4658
S2144007F090BD00BF1D594000755740002CC24000B8
S21440080034C240003CC240004CC2400060C240007F
S21440081068C240003194400090C2400005594000F4
S214400820D35C4000A8C24000C4C24000E4C24000BE
S21440083010C1400014C3400090B589B002AF786044
S21440084000233B610023FB730023FB7576E0FB7DB2
S21440085019467868414B9847B860B868404B984707
S2144008600346002B67D0B8683E4B98470346202B7C
S21440087009D1FC7D0221B8683B4B984702463B4B6A
S21440088043F8342008E0FC7D0021B868364B984792
S2144008900246364B43F83420FB7D344A52F8333018
S2144008A0B3F1FF3F0BD1FB7D304ADB0013440022FF
S2144008B09A80FB7D19462E482E4B984727E0FC7DB4
S2144008C0B8682D4B984703461946284AE300134418
S2144008D00A469A80FC7DFB7D244A52F8333007EE68
S2144008E0903AF8EE677A9FED257AC7EE876A244BF2
S2144008F016EE900A9847FB7D1C4ADB0013449B8803
S214400900009302460B4621461E481A4CA047B8683C
S2144009101D4B984703463B61FB7D3A6991B2134AAB
S214400920DB0013440A46DA80184B1B78022B02D9A8
S2144009301748104B9847FB7D0133FB757868154B7D
S214400940984703461A46FB7D934280D31048094B8E
S2144009509847FB7B18461C37BD4690BD375940002C
S214400960ED584000BB5940001B5B4000F00400209F
S21440097040C34000319440004D5B400000000042C0
S214400980C5B640006CC340004B5A40007003002080
S21440099010C140008B59400098B500AF034B9847B4
S2144009A003460C461846214698BD00BF9D2E400083
S2144009B080B582B000AF78607B68072B31D801A243
S2144009C052F823F0210A4000E5094000ED094000B6
S2144009D0F5094000FD094000050A40000D0A4000A8
S2144009E0170A40000020114B98471AE001200F4B91
S2144009F0984716E000200E4B984712E010200C4B0C
S214400A0098470EE020200A4B98470AE03E210020F7
S214400A10084B984705E03E210120064B984700E0EA
S214400A2000BF00BF0837BD4680BD00BF2D41400017
S214400A30994140000942400080B582B000AF7860DE
S214400A407B68072B26D801A252F823F06D0A400097
S214400A50710A4000710A4000830A4000830A400041
S214400A60830A4000830A4000830A4000012312E0C4
S214400A700B4B98470346002B14BF01230023DBB2E1
S214400A8009E0084B98470346002B14BF0123002378
S214400A90DBB200E0002318460837BD4680BD00BFE5
S214400AA0654140008142400080B483B000AF78602A
S214400AB07B68072B25D801A252F823F0DD0A4000B8
S214400AC0E30A4000E90A4000EF0A4000F30A40000B
S214400AD0F70A4000FB0A4000FF0A40004FF4FA4382
S214400AE010E04FF400430DE04FF400430AE0084B9B
S214400AF008E0084B06E0084B04E0002302E0002331
S214400B0000E0002318460C37BD465DF8047B70476E
S214400B1000127A000024F40000366E0180B582B0E0
S214400B2000AF0346FB7100BFFB791846054B98475C
S214400B30034683F00103DBB2002BF5D100BF083734
S214400B40BD4680BD390A400080B586B000AFF8602B
S214400B507A603B600B46FB72FB7A18460D4B984713
S214400B6002467B68B2FBF3F37B617B693A6802FB23
S214400B7003F37B613B68013B1A04074B13407A68DA
S214400B80D2B2134343F47C52FB681A6000BF183756
S214400B90BD4680BDA90A40000000FF1F80B582B058
S214400BA000AF786039603B68002B06D1084B984709
S214400BB0084A7B681B68936205E0074B9847054ADE
S214400BC07B681B68D36200BF0837BD4680BD00BF48
S214400BD09D42400000040E40D142400080B582B0A5
S214400BE000AF78607B68002B03D1084B98470346DC
S214400BF007E07B68012B03D1054B9847034600E08E
S214400C00002318460837BD4680BD00BFB5424000A9
S214400C10E942400080B582B000AF0346FB71FB79E5
S214400C200033012B08D8FB791846064B9847FB79CA
S214400C301846054B984700E000BF00BF0837BD4642
S214400C4080BD00BFB10940001D0B400080B582B09A
S214400C5000AF786000BF7868044B98470346002B87
S214400C60F9D0002318460837BD4680BDDD0B40004E
S214400C7080B500AF0120044B9847024640F64E63CD
S214400C8003FB02F3184680BDA90A400080B500AFBA
S214400C90024B98470346184680BD00BF710C400083
S214400CA090B5A5B002AF2048204B98470120204B76
S214400CB09847384640F64E63012201211D4CA04716
S214400CC03B46002118461C4B984700201B4B984734
S214400CD000201B4B98471B4B98471B4B9847034697
S214400CE01846124B9847194B1B68194A934216D818
S214400CF0164B1B68174A934211D93A1D202300937E
S214400D0013460F220E211448144CA0477B6C9BB20E
S214400D10C7F88430D7F884101148124B984700BF64
S214400D208C37BD4690BD00BF000E2707BD53400020
S214400D30150C4000490B40009D0B40004D0C4000F8
S214400D40A9404000995240008D0C400070010020A0
S214400D50C0EF0B083F2C4206000A0E400B00002056
S214400D6010140E40D948400080B483B000AF114BF9
S214400D701B68002B12D1EFF310837B607B68002B3F
S214400D8009D172B6BFF35F8F0B4B00221A700B4B24
S214400D9001221A7002E0094B00221A70054B1B68AC
S214400DA00133044A136000BF0C37BD465DF8047B30
S214400DB0704700BF74030020140100207803002011
S214400DC080B400AF0C4B1B68013B0B4A13600A4BC8
S214400DD01B68002B0AD1094B1B78DBB2002B05D0D1
S214400DE0074B01221A70BFF35F8F62B600BFBD4645
S214400DF05DF8047B704700BF740300207803002032
S214400E001401002080B586B000AFF860B9607A6003
S214400E1000237B61FB68002B12D04FF0FF3313E0BA
S214400E200B4B1B680B4A1268B96810469847BB685C
S214400E300133BB607B6901337B617B68013B7B6030
S214400E407B68002BECDC7B6918461837BD4680BDB6
S214400E50780800208008002080B586B000AFF86093
S214400E60B9607A6000237B61FB68012B1ED0FB686B
S214400E70022B1BD0FB68032B18D04FF0FF3319E032
S214400E800E4B1A680E4B1868BB68591CB9601B7825
S214400E90194690470346002B02DA4FF0FF3309E02D
S214400EA07B6901337B617B68013B7B607B68002B01
S214400EB0E6D17B6918461837BD4680BD7C080020C1
S214400EC08008002080B483B000AF78607B68072B32
S214400ED025D801A252F823F0F90E4000FF0E40003C
S214400EE0050F40000B0F40000F0F4000130F40004F
S214400EF0170F40001B0F40004FF4FA4310E04FF42A
S214400F0000430DE04FF400430AE0084B08E0084B6E
S214400F1006E0084B04E0002302E0002300E0002344
S214400F2018460C37BD465DF8047B704700127A00C1
S214400F300024F40000366E0180B500AF0120044B5B
S214400F409847024640F64E6303FB02F3184680BDC0
S214400F50C50E400080B500AF024B98470346184682
S214400F6080BD00BF390F400080B48DB000AF7860C0
S214400F700B46FB707B68FB62FB7887F82B30FB6A7E
S214400F807B627B6A3B623B6A5B09FB61FB6903F5FC
S214400F90001303F207735B02BB6197F82B30012BFB
S214400FA009D1FB6A7B617B6903F01F0301229A40EB
S214400FB0BB691A610CE097F82B30002B08D1FB6A0E
S214400FC03B613B6903F01F0301229A40BB695A61AB
S214400FD0FB6AFB60FB6803F01F0301229A40BB6973
S214400FE0C3F8A02000BF3437BD465DF8047B704789
S214400FF080B48BB000AF78600B46FB707B687B623A
S214401000FB7887F823307B6AFB61FB69BB61BB6971
S2144010105B097B617B6903F5001303F207735B0290
S2144010203B6197F82330002B09D07B6AFB60FB6856
S21440103003F01F0301229A403B691A6308E07B6A6B
S214401040BB60BB6803F01F0301229A403B695A63AA
S21440105000BF2C37BD465DF8047B704780B582B034
S21440106000AF1B481B4B9847786019481A4B984767
S21440107002467B6813407B607B6803F08043002B0E
S21440108001D0164B98477B6803F40013002B02D020
S2144010900020134B98477B6803F48003002B02D054
S2144010A001200F4B98477B6803F40003002B02D0C7
S2144010B002200B4B98477B6803F00053002B02D06E
S2144010C00320074B984700BF0837BD4680BD00BF8A
S2144010D0000E0E40213D4000393D4000E5104000E6
S2144010E0F510400080B400AF00BFBD465DF8047BFD
S2144010F07047000080B584B000AF7860134B1B6823
S2144011001B69FB60124A7B6852F82330BB600021A3
S214401110B868104B98470121B8680F4B98470F4A5C
S2144011207B6852F8233019460D480E4B9847FB68AB
S214401130002B06D0054B1A687B68D9B2FB68104670
S214401140984700BF1037BD4680BD00BF94080020BA
S21440115030010020F10F4000690F400040010020A0
S214401160000E0E40053D400080B500AF0120024B0A
S214401170984700BF80BD00BF9111400080B500AFCA
S2144011800320024B984700BF80BD00BF911140002E
S21440119080B58AB000AF0346FB71002387F8233042
S2144011A00023FB610023FB76FB79012B05D14B4BDB
S2144011B07B62002387F823300BE0FB79032B05D1B5
S2144011C0474B7B62012387F8233002E00123FB76FE
S2144011D080E0786A434B9847786197F82330424AD4
S2144011E052F833303B6197F823303F4ADB001344D4
S2144011F09B88FB60786A3D4B9847B860786A3C4B62
S21440120098470246BB681340BB60FB7E002B61D10B
S214401210BB6803F48053002B5CD002217869354BC1
S21440122098474FF48051786A334B98470023FB61C8
S21440123007E0FB690133FB61FB6942F20F729342A0
S21440124006D87B6A1B6A03F00203002BF1D000E04D
S21440125000BF7B6A02221A60FB68023B3A6913446D
S2144012607A6A126BD2B21A700023FB6107E0FB6900
S2144012700133FB61FB6942F20F72934206D87B6AE8
S2144012801B6A03F00203002BF1D000E000BFFB68AE
S214401290013B3A6913447A6A126BD2B21A70002341
S2144012A0FB6107E0FB690133FB61FB6942F20F72A9
S2144012B0934206D87B6A1B6A03F00103002BF1D0E9
S2144012C000E000BF0D4B1B6897F8232011461846D8
S2144012D00B4B98472837BD4680BD00BF00060240EE
S2144012E000860140514E400084080020014E4000D8
S2144012F0194E4000BD394000E14D400094080020A2
S2144013007D5D400080B500AF0248034B984700BF64
S21440131080BD00BF30140E40C148400080B500AFCD
S214401320014B984700BF80BD9909400080B582B008
S21440133000AF01210A480B4B9847786001210848C6
S214401340094B984738603A687B68134003F01003AF
S214401350002B01D0054B984700BF0837BD4680BDDF
S21440136000000140DF494000BB494000E52D4000F9
S21440137080B582B000AF786001217868044B98470A
S21440138000217868034B984700BF0837BD4680BDAC
S214401390690F4000F10F40002DE9F84F00AF0121E2
S2144013A00020354B984701210120334B98470121B7
S2144013B00520314B984701212F202F4B984700217D
S2144013C000202E4B9847002101202C4B98470021A7
S2144013D005202A4B984700212F20284B9847284B1A
S2144013E09847034619464FF000020B4614464FEA0C
S2144013F0441B4BEAD36B4FEA431A53465C465B1A90
S21440140064EB02044FEA840949EA93794FEA830879
S21440141043464C465B1844EB0204E60046EA5376E5
S214401420DD002B4634461946224643F2AF634FF062
S2144014300004CD1842EB040628463146114C43F2D0
S214401440B0624FF00003A04703460C4618460E4BCA
S214401450984701210020094B984701210120074B5E
S214401460984701210520054B984701212F20034B23
S214401470984700BFBDE8F88F690F4000F10F400065
S214401480550F40005DBD40000100002080B483B091
S21440149000AF0346FB71094997F907305B09FA79B3
S2144014A002F01F02012000FA02F241F8232000BF9A
S2144014B00C37BD465DF8047B704700BF00E100E096
S2144014C080B483B000AF0346FB71094997F90730F3
S2144014D05B09FA7902F01F02012000FA02F220337B
S2144014E041F8232000BF0C37BD465DF8047B7047AB
S2144014F000E100E080B483B000AF0346FB710949C9
S21440150097F907305B09FA7902F01F02012000FACA
S21440151002F2603341F8232000BF0C37BD465DF829
S214401520047B704700E100E080B483B000AF034620
S2144015303960FB7197F90730002B0BDA0D49FB79C0
S21440154003F00F03043B3A68D2B21201D2B20B4406
S2144015501A7609E0084997F907303A68D2B212017C
S214401560D2B20B4483F8002300BF0C37BD465DF86B
S214401570047B704700ED00E000E100E080B483B0FB
S21440158000AF78607B68072B25D801A252F823F07D
S214401590B1154000B7154000BD154000C3154000CA
S2144015A0C7154000CB154000CF154000D31540006E
S2144015B04FF4FA4310E04FF400430DE04FF400437D
S2144015C00AE0084B08E0084B06E0084B04E000231E
S2144015D002E0002300E0002318460C37BD465DF8C5
S2144015E0047B704700127A000024F40000366E0137
S2144015F080B500AF0120044B9847024640F64E6344
S21440160003FB02F3184680BD7D15400080B500AF51
S214401610024B98470346184680BD00BFF115400070
S21440162080B582B000AF78607868034B984700BFBB
S2144016300837BD4680BD00BF0543400080B48BB030
S21440164000AFF860B9601346FB71FB687B62BB680D
S2144016503B62FB79FB777B6ABB61BB6903F5001392
S21440166003F207735B027B61FB7F012B03D17B692F
S2144016703A6A1A6105E0FB7F002B02D17B693A6A21
S2144016805A617B693A6AC3F8A02000BF2C37BD4632
S2144016905DF8047B704780B48DB000AF78600B4631
S2144016A0FB707B68FB62FB7887F82B30FB6A7B62BB
S2144016B07B6A3B623B6A5B09FB61FB6903F500138F
S2144016C003F207735B02BB6197F82B30012B09D1FD
S2144016D0FB6A7B617B6903F01F0301229A40BB696A
S2144016E01A610CE097F82B30002B08D1FB6A3B615F
S2144016F03B6903F01F0301229A40BB695A61FB6AAB
S214401700FB60FB6803F01F0301229A40BB69C3F8E5
S214401710A02000BF3437BD465DF8047B704780B4D8
S2144017208BB000AF78600B46FB707B687B62FB78C3
S21440173087F823307B6AFB61FB69BB61BB695B0949
S2144017407B617B6903F5001303F207735B023B6121
S21440175097F82330002B09D07B6AFB60FB6803F0C8
S2144017601F0301229A403B691A6308E07B6ABB600C
S214401770BB6803F01F0301229A403B695A6300BFCF
S2144017802C37BD465DF8047B704780B48BB000AF05
S214401790F860B9601346FB71FB687B62BB683B62CE
S2144017A0FB79FB777B6ABB61BB6903F5001303F2E9
S2144017B007735B027B61FB7F002B03D07B693A6A31
S2144017C01A6302E07B693A6A5A6300BF2C37BD460B
S2144017D05DF8047B704780B485B000AF78607B6866
S2144017E0FB60FB6803F01F03012202FA03F300BF0D
S2144017F018461437BD465DF8047B704780B483B006
S21440180000AF78600B467B8000BF0C37BD465DF866
S214401810047B704780B485B000AF78607B681B6CF3
S214401820FB60FB6823F40013FB607B68FA681A646D
S21440183000BF1437BD465DF8047B704780B485B062
S21440184000AF78600B46FB707B685B68FB60FB789C
S214401850FF2B04D1FB6843F08003FB6007E0FB6886
S21440186023F08F03FB60FB78FA681343FB607B68CA
S214401870FA685A6000BF1437BD465DF8047B70476F
S21440188080B483B000AF78600B46FB70FB78002BCB
S21440189004D07B68064AC3F8E42003E07B68054A28
S2144018A0C3F8E42000BF0C37BD465DF8047B7047A4
S2144018B0014344410043444180B582B000AF786064
S2144018C00B467B807B884FF6FF72934204D07B8822
S2144018D0194678680A4B98477B884FF6FF729342C2
S2144018E005D07B88012202FA03F31A4601E04FF640
S2144018F0FF727B681A6100BF0837BD4680BD00BFD7
S214401900FD17400080B582B000AF78600B467B8004
S2144019107B8819467868054B98477A887B681432E6
S21440192053F8223018460837BD4680BDFD174000A4
S21440193090B583B000AF01210F205D4B9847012141
S2144019400F205C4B984701211020594B98470121A6
S2144019501220574B984701211320554B9847012199
S2144019601F20534B984700211020524B9847002188
S2144019701220504B9847002113204E4B9847002189
S2144019801F204C4B9847012110204A4B98474A4B02
S214401990984700233B7100237B713B1D02220021A8
S2144019A04520464CA0474648464B98473B790A2B2D
S2144019B006D17B79022B03D14348424B984702E03D
S2144019C04248404B9847002110203A4B9847012107
S2144019D01220384B9847384B984700233B710023DA
S2144019E07B713B1D022200214520344CA0473848DD
S2144019F0344B98473B790A2B06D17B79022B03D18F
S214401A003148304B984702E030482E4B98470021EB
S214401A101220284B984701211320264B98472D4BE0
S214401A20984700233B7100237B713B1D0222002117
S214401A304520294CA0472948224B98473B790A2BFA
S214401A4006D17B79022B03D11F481E4B984702E0F4
S214401A501E481C4B984700211320164B98470121DF
S214401A601F20144B98471B4B984700233B7100237D
S214401A707B713B1D022200214520174CA047184889
S214401A80104B98473B790A2B06D17B79022B03D122
S214401A900D480C4B984702E00C480A4B98470021EB
S214401AA01F20044B984700BF0C37BD4690BD00BF73
S214401AB0971640001F174000757E4000B57F4000D7
S214401AC094C3400031944000A4C34000ACC34000DF
S214401AD0B8C34000ED7E40004D804000C8C3400083
S214401AE0D8C3400080B500AF144B98471448154BF8
S214401AF098471548154B984713491148144B984733
S214401B0000210F48134B9847FF210D48124B98472A
S214401B10124B40F6FF721A6000210948104B984756
S214401B20002107480F4B98470F4B1B6800221A604E
S214401B30012103480B4B984700BF80BDCD3640007F
S214401B4000800340151840008C030020C934400034
S214401B50B5354000B91840003D18400088030020C5
S214401B601536400081184000680100200000000043
S214401B702DE9F04F8FB000AF78614FF000034FF083
S214401B800004C7E90A3464237B6200237B6388E051
S214401B90794A7B6AB2FBF3F31E3B3B623B6A002BFF
S214401BA025D03B6A98464FF00009744B9847034649
S214401BB04FF0000403FB09F108FB04F20A44A8FBBB
S214401BC003342244144668A2D2E9001213EB0108FB
S214401BD044EB020940464946694C6A4A4FF00003C6
S214401BE0A04703460C461846674B984717E0634B9A
S214401BF0984703464FF000045BA2D2E9001213EB6D
S214401C00010844EB0209404649465D4C5D4A4FF0A8
S214401C100003A04703460C4618465B4B98475B4B71
S214401C201B6802221A60554B9847034619464FF0E8
S214401C3000020B4614462001F860F86840EA13702C
S214401C40F8601B01BB60D7E902345B1A64EB020400
S214401C50DB1844EB04041946224643A4D4E9003476
S214401C6011EB030842EB040940464946444C454ABA
S214401C704FF00003A04703460C461846424B984791
S214401C8000214348434B984703464FF00004D7E9AA
S214401C900A125B1844EB0204C7E90A347B6B013333
S214401CA07B637A6B7B699A42FFF472AF7B694FF035
S214401CB00004334ABA601A462346D7E90A01BC688C
S214401CC0A04703460C46194622460B461446DB18E8
S214401CD044EB04045B1844EB0204A0007860786888
S214401CE040EA937078609B003B60D7E900345B180D
S214401CF044EB0204A60146EA93669D01ED1A66EBA4
S214401D0004064FEA860B4BEA957B4FEA850A554612
S214401D105E466B1846EB0204184621461E4B1B686F
S214401D204FF00004164D1A462346A84703460C4675
S214401D3019462246194B084611469847184C0CA39C
S214401D40D3E90023A04703460C4619462246154BC6
S214401D500846114698470346FB61FB6918463C37E0
S214401D60BD46BDE8F08F00BF7F9FD5000000000055
S214401D703A92CB7F48BFE33FA08601000D16400055
S214401D805DBD4000809FD50001000020640100201A
S214401D9000800340051940008803002001B740003A
S214401DA0C1B940001DBD400080B582B000AF642080
S214401DB0054B9847786079680448054B984700BFBC
S214401DC00837BD4680BD00BF711B4000E8C34000D9
S214401DD03194400090B583B002AF0B20414B9847FA
S214401DE0002241494148424B984701223E493F48DC
S214401DF0404B984770234FF080424FF020513B486D
S214401E003D4CA04770234FF400124FF02051374806
S214401E10394CA04770234FF480024FF0205133488E
S214401E20354CA04770234FF400024FF020512F4806
S214401E30314CA04770234FF000524FF020512B48B2
S214401E402D4CA0470023009370234FF080420B2177
S214401E5026482A4CA0470023009370234FF40012D4
S214401E600B212248254CA0470023009370234FF4B3
S214401E7080020B211D48214CA0470023009370236D
S214401E804FF400020B2119481C4CA0470023009336
S214401E9070234FF000520B211448184CA0470022E4
S214401EA00B211248164B98474FF080410F48154B70
S214401EB098474FF400110D48124B98474FF4800155
S214401EC00A48104B98474FF4000108480D4B984776
S214401ED04FF0005105480B4B984700BF0437BD46AE
S214401EE090BD00BF054340000000E020000E0E40BD
S214401EF0DF3940004D3C40008D3B4000F53E400001
S214401F00B13F4000053D400080B582B000AF7860EC
S214401F100F4A7B6813607B6804221A707B68022233
S214401F205A707B686422DA800A4B98470A4B984777
S214401F300A4B98470A4B98470A4B98470A4B98478C
S214401F400A4B98470A4B984700BF0837BD4680BDA6
S214401F5094080020A10C40001D324000698A4000D1
S214401F60E51A4000D51D400031194000A91D40002B
S214401F709913400080B500AF00210F20014B9847D1
S214401F8000BF80BD1F17400080B500AF01210F2065
S214401F90014B984700BF80BD1F17400080B584B0F6
S214401FA000AF78607868084B98470346FB73FB7B26
S214401FB0064A52F8233001211846054B984700BF81
S214401FC01037BD4680BD00BF1D594000200100208F
S214401FD01F17400080B584B000AF78607868084B23
S214401FE098470346FB73FB7B064A52F82330002192
S214401FF01846054B984700BF1037BD4680BD00BF0A
S2144020001D594000200100201F17400080B584B0B5
S21440201000AF78607868084B98470346FB73FB7BB5
S214402020064A52F8233000211846054B984700BF11
S2144020301037BD4680BD00BF1D594000300100200E
S2144020409716400080B586B000AF786000237B616D
S2144020500023FB7419E0FB7C19467868134B9847BD
S214402060F860F868124B98470346002B0AD0FB7C72
S214402070104A52F8233018460F4B984702467B6961
S21440208013437B61FB7C0133FB7478680B4B9847AA
S21440209003461A46FB7C9342DDD301227969002031
S2144020A0074B984700BF1837BD4680BD375940009C
S2144020B0ED58400030010020D71740008B594000B3
S2144020C03D16400080B586B000AF786000237B6147
S2144020D00023FB7419E0FB7C19467868134B98473D
S2144020E0F860F868124B98470346002B0AD0FB7CF2
S2144020F0104A52F8233018460F4B984702467B69E1
S21440210013437B61FB7C0133FB7478680B4B984729
S21440211003461A46FB7C9342DDD3002279690020B1
S214402120074B984700BF1837BD4680BD375940001B
S214402130ED58400030010020D71740008B59400032
S2144021403D16400090B587B002AF78600121102060
S2144021503A4B984701211220384B984701211320CB
S214402160364B984701211F20344B984700211020BA
S214402170334B984700211220314B984700211320BB
S2144021802F4B984700211F202D4B984701210F20A9
S2144021902A4B98472B4B98470023FB730BE0FB7B5F
S2144021A019467868284B9847B860B868274B9847D0
S2144021B0FB7B0133FB737B681B78FA7B9A42EED33A
S2144021C07868234B98470B20224B98470023BB73D5
S2144021D00CE0BB7B204A52F8232070234FF020515E
S2144021E01E481F4CA047BB7B0133BB737B681B78E4
S2144021F0BA7B9A42EDD370234FF080424FF0205185
S2144022001648174CA047144B1A68002300937023B7
S2144022100B211248134CA047134B009370234FF0EA
S21440222080420B210D480F4CA04700220B210B4843
S2144022300E4B984700BF1437BD4690BD97164000DA
S2144022401F174000751F4000375940009D1F400033
S214402250C52040000543400040010020000E0E40CF
S2144022608D3B4000F53E4000E5104000B13F400049
S21440227080B586B000AF786000237B610023FB7496
S21440228019E0FB7C19467868134B9847F860F86865
S214402290124B98470346002B0AD0FB7C104A52F854
S2144022A0233018460F4B984702467B6913437B61A1
S2144022B0FB7C0133FB7478680B4B984703461A4601
S2144022C0FB7C9342DDD3002279690020074B984778
S2144022D000BF1837BD4680BD37594000ED58400016
S2144022E030010020D71740008B5940008B17400024
S2144022F080B586B000AF786000233B610023FB7555
S21440230019E0FB7D19467868134B9847F860F868E3
S214402310124B98470346002B0AD0FB7D104A52F8D2
S214402320233018460F4B984702463B6913433B61A0
S214402330FB7D0133FB7578680B4B984703461A467E
S214402340FB7D9342DDD3012239690020074B984735
S21440235000BF1837BD4680BD37594000ED58400095
S21440236030010020D71740008B5940008B174000A3
S21440237080B584B000AF78600023FB730BE0FB7B36
S214402380194678680A4B9847B860B868094B98472A
S214402390FB7B0133FB737868074B984703461A4626
S2144023A0FB7B9342EBD300BF1037BD4680BD00BFDA
S2144023B037594000BD2340008B59400080B584B05B
S2144023C000AF786078680F4B98470346FB73786891
S2144023D00D4B98470346002B10D0FB7B0B4A52F818
S2144023E023305BB219460A480A4B9847FB7B074A9C
S2144023F052F8233019460648074B984700BF103717
S214402400BD4680BD1D594000ED58400040010020AB
S214402410000E0E4035404000E93C400080B584B098
S21440242000AF78600023FB730BE0FB7B19467868AF
S2144024300A4B9847B860B868094B9847FB7B01330E
S214402440FB737868074B984703461A46FB7B9342D4
S214402450EBD300BF1037BD4680BD00BF37594000A4
S214402460692440008B59400080B582B000AF786048
S2144024707B68DB7F002B0AD07B6893F820301A46B7
S214402480054B53F8223019460448054B984700BF81
S2144024900837BD4680BD00BF40010020000E0E40FC
S2144024A0053D400080B582B000AF78607B6893F809
S2144024B020301A46054B53F8223001211846044B6B
S2144024C0984700BF0837BD4680BD00BF300100209A
S2144024D01F17400000000000F0B583B000AF7860E2
S2144024E07B68002B24D07B681D464FF00006204BAF
S2144024F0984703464FF0000403FB06F105FB04F241
S2144025000A44A5FB03342244144617A2D2E900121B
S2144025105D1844EB020628463146164C164A4FF0E4
S2144025200003A04703460C461846144B984716E04F
S2144025300F4B984703464FF000040BA2D2E9001217
S2144025405D1844EB0206284631460A4C0A4A4FF0CC
S2144025500003A04703460C461846084B984700BF62
S2144025600C37BD46F0BD00BF7F9FD5000000000081
S2144025700D1640005DBD4000809FD5000100002044
S214402580F0B583B000AF78607B684FF47A7202FB98
S21440259003F3002B28D07B684FF47A7202FB03F3D8
S2144025A01D464FF00006204B984703464FF0000468
S2144025B003FB06F105FB04F20A44A5FB0334224460
S2144025C0144617A2D2E900125D1844EB02062846CC
S2144025D03146164C164A4FF00003A04703460C46B9
S2144025E01846144B984716E00F4B984703464FF053
S2144025F000040BA2D2E900125D1844EB02062846FE
S21440260031460A4C0A4A4FF00003A04703460C46A0
S2144026101846084B984700BF0C37BD46F0BD00BF74
S2144026207F9FD500000000000D1640005DBD4000B5
S214402630809FD5000100002080B500AF024B984730
S2144026400023184680BD00BF657F400080B487B039
S21440265000AFF8600B467A60FB720123FB75FB7A8D
S214402660042B0ED8FB7A0A4AD25C7B681A70FB7A37
S214402670084AD25C7B685A707B6800225A800023E6
S214402680FB75FB7D18461C37BD465DF8047B7047DE
S214402690180100201C01002080B586B000AFF8600D
S2144026A0B9601346FB8000237B61FB6893F82130BA
S2144026B0002B09D1FB681B7EF988BA6818460C4B7C
S2144026C0984703467B610DE0FB6893F82130012B69
S2144026D008D1FB681B7EF988BA681846054B9847B0
S2144026E003467B617B6918461837BD4680BD00BFF0
S2144026F02D814000B581400090B587B000AFF860AE
S2144027007A601A460B467B8113463B8100237B61E9
S214402710FB6893F82130002B0AD1FB68187E7B8932
S214402720D9B23A897B680C4CA04703467B610EE0E1
S214402730FB6893F82130012B09D1FB68187E7B8912
S214402740D9B23A897B68054CA04703467B617B69D2
S21440275018461C37BD4690BDE58040006D81400060
S21440276080B485B000AFF8607A601A460B467B812D
S21440277013463B81012318461437BD465DF8047B5B
S2144027807047000080B586B000AFF860B960134669
S214402790FB8001237B61F868124B98470346FB7425
S2144027A0F868114B98470346BB74BB7C002B08D196
S2144027B0F988FB7CBA6818460C4B984703467B6101
S2144027C00AE0BB7C012B07D1F988FB7CBA68184627
S2144027D0074B984703467B617B6918461837BD46CA
S2144027E080BD00BF595940007159400005804000E7
S2144027F09D80400090B587B000AFF8607A601A467A
S2144028000B467B8113463B8101237B61F868134B63
S21440281098470346FB74F868114B98470346BB74C9
S214402820BB7C002B09D17B89D9B23A89F87C7B687E
S2144028300C4CA04703467B610BE0BB7C012B08D1C8
S2144028407B89D9B23A89F87C7B68074CA047034617
S2144028507B617B6918461C37BD4690BD5959400080
S21440286071594000B57F40004D80400080B590B023
S21440287000AFF860B9601346FB80F8683F4B984756
S214402880034687F83330F8683D4B9847034687F849
S214402890323000237B6397F83230002B06D1394B19
S2144028A0FB633848384B9847B8630CE097F83230AB
S2144028B0012B06D1354BFB633448334B9847B863FE
S2144028C001E001237B637B6B002B10D1BB68002BA0
S2144028D00DD097F832302E49BA6841F8332097F831
S2144028E032302B4ADB001344FA889A8001E00123F9
S2144028F07B637B6B002B3CD197F8333087F82430D2
S21440290000233B750023BB61BB68FB61FB883B62D1
S21440291040F20221B86B1F4B9847BB68BB62FB88EE
S214402920023BFB6207F1280300221946B86B1A4B9C
S2144029309847FB6B00225A6097F824301B0403F438
S214402940FE02BB691B0203F44073134343F48052F8
S214402950FB6B5A60FB6B0022DA600121B86B0F4BB1
S2144029609847FB6B01221A604FF48051F86B0C4B72
S21440297098477B6B18464037BD4680BD5959400046
S2144029807159400000060240514E4000008601400A
S21440299084080020BD394000573940009B3940002C
S2144029A0C54D400080B590B000AFF8607A601A46DA
S2144029B00B467B8113463B81F868464B9847034657
S2144029C087F83330F868444B9847034687F83230E8
S2144029D000237B6397F83230002B06D13F4BFB63D6
S2144029E03E483F4B9847B8630CE097F83230012B8F
S2144029F006D13C4BFB633B48394B9847B86301E0F4
S214402A0001237B637B6B002B10D17B68002B0DD0A2
S214402A1097F8323034497A6841F8332097F83230A4
S214402A20314ADB0013443A899A8001E001237B63F4
S214402A307B6B002B48D197F8333087F824307B895E
S214402A40DBB23B750123BB617B68FB613B893B6224
S214402A5040F20221B86B254B98477B68BB623B89A6
S214402A60023BFB6207F1280300221946B86B204B55
S214402A709847FB6B00225A6097F824301B0403F4F7
S214402A80FE02BB691B0203F44073134343F48052B7
S214402A90FB6B5A60FB6B0022DA60BB691A4607F193
S214402AA0140311461846134B98470246FB6BDA60F0
S214402AB00121B86B104B9847FB6B01221A604FF40C
S214402AC08051F86B0D4B98477B6B18464037BD4698
S214402AD080BD00BF59594000715940000006024071
S214402AE0514E40000086014084080020BD39400019
S214402AF057394000814B40009B394000C54D40004F
S214402B0080B584B000AF78607868094B9847034634
S214402B10FB73FB7B002B02D1064B984704E0FB7B04
S214402B20012B01D1044B984700BF1037BD4680BDEE
S214402B3071594000757E4000ED7E400080B582B001
S214402B4000AF03463960FB80324AFB881380324A26
S214402B503B681360314B1B7883F00103DBB2002BDC
S214402B6043D017202E4B984718202D4B98470320CC
S214402B702C4B98474FF46F6103202B4B984703200C
S214402B802A4B98472A4B0122C3F8C0201720294BCE
S214402B9098471720284B984701211720274B9847DE
S214402BA01720274B98471820224B98471820224B2F
S214402BB0984701211820214B98471820204B9847CA
S214402BC048F2040200211A481E4B98470122002171
S214402BD017481D4B9847002115481C4B984748F20C
S214402BE0040201211248174B98470C4B01221A70D9
S214402BF0FB884FF47A7202FB03F31846144B98474F
S214402C0003469AB2134B1A80002318460837BD462F
S214402C1080BD00BF800300207C030020A40300206A
S214402C20211640006144400089434000394440003A
S214402C3000000140C1144000F51440002915400032
S214402C408D14400011494000934940004B494000D4
S214402C50592C4000600100202DE9F04F87B000AFAE
S214402C60F860FA6815464FF000062946324650018D
S214402C707860786840EAD16078604A013A60D7E97F
S214402C800012491B62EB0602940144EA91648B01F0
S214402C905B1A64EB02044FEA041B4BEA137B4FEAD1
S214402CA0031A53465C465B1944EB06044FEA041984
S214402CB049EA13794FEA031843464C46581944EB01
S214402CC006011C4C1C4A4FF00003A04703460C4626
S214402CD0C7E90434D7E904344FF6FF714FF00002D9
S214402CE0A24208BF99420FD2D7E90401114C4FF6D1
S214402CF0FF724FF00003A04703460C46DBB2013399
S214402D00DAB20E4B1A7002E00C4B01221A700B4BD3
S214402D101B78DBB24FF00004064D1A462346D7E92F
S214402D200401A84703460C4618461C37BD46BDE876
S214402D30F08F00BF5DBD400040420F00850300207D
S214402D4080B582B000AF0B4B1B881A460A4B1B88D7
S214402D5013447B607B689AB2064B1A807B689BB2B2
S214402D601A4601210548064B984700BF0837BD461E
S214402D7080BD00BF820300206001002000000140AB
S214402D806D49400080B500AF01210548054B984786
S214402D90102201210248044B984700BF80BD00BF67
S214402DA000000140DF4940009349400080B500AF35
S214402DB0074B00221A70074B00221A80064B984792
S214402DC001210648064B98470023184680BD00BFA1
S214402DD08403002082030020412D40000000014073
S214402DE04B49400080B582B000AF0E4B1B687B60FD
S214402DF00D4B1B780133DAB20B4B1A700B4B9847CE
S214402E00094B1A780A4B1B789A4207D3064B002286
S214402E101A707B68002B01D07B68984700BF083744
S214402E20BD4680BD7C03002084030020412D400029
S214402E308503002080B500AF0220024B984700BFB4
S214402E4080BD00BF2545400080B582B000AF034638
S214402E50FB71FB79044A52F823301846034B9847D7
S214402E6000BF0837BD4680BD5001002071134000AA
S214402E7090B583B000AF074B984703460C467B603F
S214402E807B68054AA2FB03239B0918460C37BD46C0
S214402E9090BD00BF99094000D34D62102DE9F04F18
S214402EA085B000AF334B9847334B1B6A03F00103A2
S214402EB0002B09D0314BD3E9003413F5803344F16D
S214402EC000042E4AC2E900342B4B1B69FB812A4B77
S214402ED01B6A03F00103002B0BD0284BD3E90034C8
S214402EE013F5803344F10004244AC2E90034002339
S214402EF0FB81234B9847F9894FF000021F4BD3E9DB
S214402F000034C91842EB04020B4614464FEA441BF1
S214402F104BEAD36B4FEA431A53465C465B1A64EB64
S214402F2002044FEA442949EAD3594FEA4328434624
S214402F304C465B1844EB0204A60146EA93669D01A4
S214402F40ED1A66EB04066B1846EB0204184621465B
S214402F500C4C0D4A4FF00003A04703460C46C7E909
S214402F600034D7E90034184621461437BD46BDE83C
S214402F70F08F00BF690D400000000140A80300200C
S214402F80C10D40005DBD400011A1070080B582B074
S214402F9000AF78607868034B984700BF0837BD4657
S214402FA080BD00BF0543400080B500AF0B20034BFB
S214402FB098470C20014B984700BF80BD8D2F40009E
S214402FC080B489B000AF78607B68FB61FB69BB6109
S214402FD0BB695A09FB697B617B6903F01F030121CA
S214402FE001FA03F33A61FB603B69BB60BB6803F5DB
S214402FF0001303F207735B021A46FB68536000BF78
S2144030002437BD465DF8047B704780B48DB000AF72
S214403010786039607B68FB623B68BB62FB6A7B62B8
S2144030207B6A5A09FB6A3B623B6A03F01F03012135
S21440303001FA03F3FA61BB61BB6A7B61FB693B61E2
S2144030403B6903F5001303F207735B02FB607B6981
S21440305003F00803002B03D0FB68BA695A6602E007
S214403060FB68BA691A667B6903F01003002B04D02C
S214403070FB68BA69C3F8942003E0FB68BA69C3F8F2
S21440308090207B6903F02003002B03D0FB68BA69CD
S2144030901A6502E0FB68BA695A657B6903F0C003AB
S2144030A0002B03D0FB68BA691A6202E0FB68BA6973
S2144030B05A627B6903F08003002B04D0FB68BA6930
S2144030C0C3F8842003E0FB68BA69C3F880207B69B4
S2144030D003F00103002B06D0FB681A6FBB691A4346
S2144030E0FB681A6706E0FB681A6FBB69DB431A4049
S2144030F0FB681A677B6903F00203002B06D0FB6867
S2144031005A6FBB691A43FB685A6706E0FB685A6FFA
S214403110BB69DB431A40FB685A6700BF3437BD467D
S2144031205DF8047B704780B48DB000AF78600B4686
S214403130FB707B68FB62FB7887F82B30FB6A7B6210
S2144031407B6A3B623B6A5B09FB61FB6903F50013E4
S21440315003F207735B02BB6197F82B30012B09D152
S214403160FB6A7B617B6903F01F0301229A40BB69BF
S2144031701A610CE097F82B30002B08D1FB6A3B61B4
S2144031803B6903F01F0301229A40BB695A61FB6A00
S214403190FB60FB6803F01F0301229A40BB69C3F83B
S2144031A0A02000BF3437BD465DF8047B704780B42E
S2144031B08BB000AF78600B46FB707B687B62FB7819
S2144031C087F823307B6AFB61FB69BB61BB695B099F
S2144031D07B617B6903F5001303F207735B023B6177
S2144031E097F82330002B09D07B6AFB60FB6803F01E
S2144031F01F0301229A403B691A6308E07B6ABB6062
S214403200BB6803F01F0301229A403B695A6300BF24
S2144032102C37BD465DF8047B7047000080B500AF94
S214403220414B4FF400425A60404B984701212A20B8
S2144032303F4B984701212A203E4B984700210220C9
S2144032403B4B9847082102203B4B984701210120E1
S214403250384B984701210120354B984701212D20B6
S214403260344B984701212D20314B984701212F2080
S214403270304B984701212F202D4B984700210B209B
S2144032802D4B98470B202D4B9847002122202A4B48
S21440329098472220294B984700212320264B9847C1
S2144032A02320264B984700210320234B9847032092
S2144032B0224B9847002104201F4B984704201F4B61
S2144032C09847002128201C4B984728201B4B98479E
S2144032D000212920184B98472920184B9847002151
S2144032E00920154B98470920144B984700210A207F
S2144032F0114B98470A20114B9847002120200E4B2F
S214403300984720200D4B9847002119200A4B984794
S21440331019200A4B984700211A20074B98471A2035
S214403320064B984700BF80BD50140E40A92F400062
S21440333027314000AF3140000B304000C12F4000E5
S21440334080B483B000AFEFF310837B607B68002BC4
S2144033500CBF01230023DBB23B6072B6BFF35F8F26
S214403360044B00221A703B6818460C37BD465DF881
S214403370047B70471401002080B483B000AF7860AF
S2144033807B68002B14BF01230023DBB218460C37A2
S214403390BD465DF8047B704780B582B000AF78606C
S2144033A07868074B98470346002B05D0054B01220B
S2144033B01A70BFF35F8F62B600BF0837BD4680BD48
S2144033C0793340001401002080B483B000AF7860A9
S2144033D07B681B6B18460C37BD465DF8047B704710
S2144033E080B584B000AF0346FB71FB790A4AD35CD4
S2144033F0FF2B00D1FEE7094B9847F860FB79064A59
S214403400D25C0132D1B2044AD154F868044B984792
S21440341000BF1037BD4680BD7008002041334000D5
S2144034209933400080B483B000AF78607B68072B48
S21440343025D801A252F823F0593440005F344000AA
S214403440653440006B3440006F34400073344000B5
S214403450773440007B3440004FF4FA4310E04FF49A
S21440346000430DE04FF400430AE0084B08E0084BE9
S21440347006E0084B04E0002302E0002300E00023BF
S21440348018460C37BD465DF8047B704700127A003C
S2144034900024F40000366E0180B500AF0120044BD6
S2144034A09847024640F64E6303FB02F3184680BD3B
S2144034B02534400080B500AF024B98470346184677
S2144034C080BD00BF9934400080B582B000AF7860C0
S2144034D07B6800221A600F4B984702467B685A600A
S2144034E07B680D4A9A607B684FF48022DA607B687E
S2144034F002221A747B6802225A747B6800229A74ED
S2144035007B680022DA747B6800221A7500BF083791
S214403510BD4680BDB5344000808D5B0080B584B02C
S21440352000AF786039600023FB603B689B7C002BD3
S21440353002D04FF0004200E000223B6859683B68EA
S2144035409B685B00B1FBF3F3013B1B029BB21A4343
S2144035503B681B7C1B0603F070631A433B685B7C2E
S2144035601B0703F040531A433B68DB681343FB607A
S2144035707B68FA685A603B68DB7C002B02D04FF0D1
S214403580807200E000223B681B7D002B02D04FF487
S214403590801300E000231A437B681A643B681B686C
S2144035A019467868024B984700BF1037BD4680BD25
S2144035B01536400080B584B000AF786039607868D2
S2144035C0114B9847034603F08073B3F1807F01D1D7
S2144035D0192315E07B6801221A60396878680B4B1E
S2144035E098470023FB6007E0094AFB68002142F841
S2144035F02310FB680133FB60FB68172BF4D90023CC
S21440360018461037BD4680BDC93340001D354000C2
S2144036109808002080B483B000AF786039607B683B
S2144036201A6C3B681A437B681A6400BF0C37BD4669
S2144036305DF8047B7047000080B582B000AF7860CC
S214403640074A7B6852F82330002B04D0044A7B6834
S21440365052F82330984700BF0837BD4680BD00BFAC
S2144036609808002080B584B000AF786078680E4B2C
S21440367098470346BB600023FB600DE00B4AFB689F
S21440368052F82320BB681340002B02D0F868084B42
S2144036909847FB680133FB60FB68172BEED900BFE9
S2144036A01037BD4680BD00BFC933400004C440004B
S2144036B03936400080B500AF0248034B984700BFFC
S2144036C080BD00BF008003406536400080B500AF37
S2144036D01D20034B98470020024B984700BF80BDF3
S2144036E005434000E133400080B483B000AFEFF3C1
S2144036F010837B607B68002B0CBF01230023DBB26A
S2144037003B6072B6BFF35F8F044B00221A703B6873
S21440371018460C37BD465DF8047B70471401002000
S21440372080B483B000AF78607B68002B14BF012361
S2144037300023DBB218460C37BD465DF8047B704765
S21440374080B582B000AF78607868074B98470346EC
S214403750002B05D0054B01221A70BFF35F8F62B66F
S21440376000BF0837BD4680BD213740001401002009
S21440377080B582B000AF78607868034B984700BF4A
S2144037800837BD4680BD00BF0543400080B584B0C5
S21440379000AF0346FB71FB790A4AD35CFF2B00D18E
S2144037A0FEE7094B9847F860FB79064AD25C01323F
S2144037B0D1B2044AD154F868044B984700BF10373A
S2144037C0BD4680BD70080020E936400041374000C5
S2144037D080B582B000AF786000204A4B98477B683F
S2144037E0494A93420DD10720484B98470720484BFB
S2144037F0984700210720474B98470720464B984755
S2144038007CE07B68454A93420DD116203F4B984753
S21440381007203F4B9847002107203E4B98470720FC
S2144038203D4B98476AE07B683D4A93420DD1152050
S214403830364B98470720364B984700210720354B94
S21440384098470720344B984758E07B68354A934260
S2144038500DD114202D4B984707202D4B984700211B
S21440386007202C4B984707202B4B984746E07B6811
S2144038702D4A93420DD11320244B98470620244BC3
S214403880984700210620234B98470620224B98470E
S21440389034E07B68254A93420DD10E201B4B984757
S2144038A006201B4B9847002106201A4B98470620B7
S2144038B0194B984722E07B681D4A93420DD1092058
S2144038C0124B98470620124B984700210620114B72
S2144038D098470620104B984710E07B68154A93425D
S2144038E00CD10820094B98470620094B98470021E1
S2144038F00620084B98470620074B984700BF0837D6
S214403900BD4680BD8D3740000040034071374000C3
S21440391061444000E1434000394440000000044018
S2144039200080004000C0014000800140004002404E
S2144039300000024000C0004080B483B000AF786012
S2144039400B46FB70FA787B681A6000BF0C37BD46A2
S2144039505DF8047B704780B485B000AFF860B9600E
S2144039607A60BB68002B07D0BB681A68FB681A6091
S214403970BB685A68FB685A607B68002B07D07B6838
S2144039801A68FB681A617B685A68FB685A6100BF10
S2144039901437BD465DF8047B704780B483B000AFF3
S2144039A0786039603A6840F2011313407A681362CF
S2144039B000BF0C37BD465DF8047B704780B483B0CB
S2144039C000AF786039603A6840F2022313407A6864
S2144039D0136200BF0C37BD465DF8047B704780B469
S2144039E085B000AFF860B9607A607B68002B03D082
S2144039F0FB68BA685A6602E0FB68BA681A6600BF97
S214403A001437BD465DF8047B704780B487B000AF7E
S214403A10F860B9607A60FB687A685A64BB68B3F14C
S214403A20805F2BD0B3F1805F05D8002B3FD0B3F139
S214403A30006F0AD037E0B3F1405F38D0B3F1605F33
S214403A4035D0B3F1205F32D02DE0FB681B6F7B6131
S214403A50FB681A6F7B68D9437B690B401A40FB684A
S214403A601A67FB685B6F7B61FB685A6F7B68D9435C
S214403A707B690B401A40FB685A6714E0FB681B6F73
S214403A807B617A687B691A43FB681A67FB685B6FE1
S214403A907B61FB685A6F7B68D9437B690B401A4051
S214403AA0FB685A6700BFFB687A685A6000E000BF50
S214403AB01C37BD465DF8047B7047000080B584B077
S214403AC000AFF860B9607A60B968F868154B9847F7
S214403AD07B6803F00A03002B03D0FB68BA681A62BF
S214403AE002E0FB68BA685A627B6803F00203002B68
S214403AF004D0FB68BA68C3F8802008E07B6803F00F
S214403B000803002B03D0FB68BA68C3F88420FB6820
S214403B10BA685A61FB68BA681A6000BF1037BD467B
S214403B2080BD00BF053D400080B584B000AFF86062
S214403B30B9607A603B60B968F868124B9847BA69D2
S214403B40B968F868104B98473B68002B03D0FB6871
S214403B50BA681A6502E0FB68BA685A657B68002B4B
S214403B6003D0FB68BA681A6302E0FB68BA685A6317
S214403B70FB68BA681A61FB68BA681A6000BF1037FB
S214403B80BD4680BD053D4000DF39400090B587B05A
S214403B9002AFF860B9607A603B60BB68B3F1205F03
S214403BA01ED0B3F1205F06D8B3F1006F0AD0B3F150
S214403BB0805F07D03AE0B3F1405F17D0B3F1605F63
S214403BC014D033E07A68B968F8681C4B98473B686D
S214403BD003F001031A467968F868194B984727E0BE
S214403BE03A687968F868174B984721E0BB68B3F1A4
S214403BF0605F0CBF01230023DBB21A463B6803F02C
S214403C000403002B14BF01230023DBB219463B6894
S214403C1003F00103002B14BF01230023DBB2009303
S214403C200B467968F868084CA04701E0002300E09E
S214403C30012318461437BD4690BD00BF0B3A4000DE
S214403C40DF394000BD3A4000293B400080B485B093
S214403C5000AFF860B9607A607B68002B04D0FB68E0
S214403C60BA68C3F8942003E0FB68BA68C3F89020AB
S214403C7000BF1437BD465DF8047B704780B485B0FE
S214403C8000AFF860B9607A607B6803F01003002BE1
S214403C9020D0FB68BA68C3F8B0207B6803F02003E6
S214403CA0002B04D0FB68BA68C3F8D42003E0FB6856
S214403CB0BA68C3F8D0207B6803F04003002B04D0DA
S214403CC0FB68BA68C3F8C02008E0FB68BA68C3F867
S214403CD0C42003E0FB68BA68C3F8B42000BF1437BA
S214403CE0BD465DF8047B704780B483B000AF786013
S214403CF039607B683A681A6400BF0C37BD465DF889
S214403D00047B704780B483B000AF786039607B68CE
S214403D103A685A6400BF0C37BD465DF8047B70476E
S214403D2080B483B000AF78607B68DB6C18460C3795
S214403D30BD465DF8047B704780B483B000AF7860C2
S214403D407B689B6C18460C37BD465DF8047B704715
S214403D5080B483B000AF0346FB71094997F907303A
S214403D605B09FA7902F01F02012000FA02F241F8DC
S214403D70232000BF0C37BD465DF8047B704700BF6C
S214403D8000E100E080B483B000AF0346FB71094910
S214403D9097F907305B09FA7902F01F02012000FA12
S214403DA002F2203341F8232000BF0C37BD465DF8B1
S214403DB0047B704700E100E080B483B000AF034668
S214403DC0FB71094997F907305B09FA7902F01F023F
S214403DD0012000FA02F2603341F8232000BF0C377E
S214403DE0BD465DF8047B704700E100E080B483B0D8
S214403DF000AF03463960FB7197F90730002B0BDAAA
S214403E000D49FB7903F00F03043B3A68D2B2120126
S214403E10D2B20B441A7609E0084997F907303A6857
S214403E20D2B21201D2B20B4483F8002300BF0C3743
S214403E30BD465DF8047B704700ED00E000E100E021
S214403E4080B584B000AF786039607868264B984774
S214403E50F8607868254B98470246FB681340FB603D
S214403E60FB68002B3CD00023BB6034E0204ABB6894
S214403E701B0113441A683B689A4226D11C4ABB6809
S214403E801B01134404331A68FB681340002B1CD0F4
S214403E90174ABB681B0113440C331B681449BA68A5
S214403EA012010A4410681249BA6812010A440432E0
S214403EB01268114698470E4ABB681B0113440433E8
S214403EC01B68DB43FA681340FB60BB680133BB608A
S214403ED0BB68062B03D8FB68002BC7D100E000BFA9
S214403EE000BF1037BD4680BD213D4000393D4000F3
S214403EF0B003002080B586B000AFF860B9607A6045
S214403F003B60224B3B61224B1B68062B01D90123A9
S214403F1038E00023FB7511E0FB7D1B011B4A134470
S214403F203B613B691A68BB689A4204D13B695A6850
S214403F307B689A4208D0FB7D0133FB75FA7D144BB3
S214403F401B689A42E8D900E000BF3B69BA681A602D
S214403F503B697A685A603B693A689A603B693A6A54
S214403F60DA60FA7D0A4B1B6801339A4204D1084B4B
S214403F701B680133064A13603A687968F868054B4F
S214403F809847002318461837BD4680BDB00300202A
S214403F90200400207D3C400080B500AF0C21024844
S214403FA0024B984700BF80BD00100E40413E400087
S214403FB080B586B000AFF8600B467A60FB7200238F
S214403FC07B61F868134B984778614FF0FF31F8688B
S214403FD0114B9847F868114B984797F90B3018469D
S214403FE00F4B984797F90B3018460E4B984797F962
S214403FF00B30796818460C4B984797F90B301846A3
S2144040000A4B98477969F868094B984700BF1837B4
S214404010BD4680BD393D4000053D4000213D400045
S214404020853D4000B93D4000ED3D4000513D4000DB
S214404030E93C400080B584B000AF78600B46FB702A
S2144040400023FB607868114B9847F8604FF0FF31CB
S21440405078680F4B984778680E4B984797F9033027
S21440406018460D4B984797F9033018460B4B984720
S21440407097F9033018460A4B9847F9687868094B11
S214404080984700BF1037BD4680BD00BF393D400051
S214404090053D4000213D4000853D4000B93D400083
S2144040A0513D4000E93C400080B485B000AF7860A8
S2144040B01D491D4B1B6B23F070027B6813430B633B
S2144040C04FF40063FB6007E0FB68002B01D101233F
S2144040D023E0FB68013BFB60134B9B6E03F0080339
S2144040E0002BF1D0104A104B1B6B23F0030343F018
S2144040F0020313634FF40063FB6007E0FB68002B8A
S21440410001D1012309E0FB68013BFB60064B9B6E37
S21440411003F00803002BF1D0002318461437BD46A1
S2144041205DF8047B704700BF00040E4080B483B047
S21440413000AF78607B68012B07D1084A074B9B6825
S21440414043F0254343F480139360044B044A1A60BB
S21440415000BF0C37BD465DF8047B704710140E4018
S214404160080000A580B400AF094B5B6903F08003EC
S214404170002B07D0074B9B6E03F08003002B01D02B
S214404180012300E000231846BD465DF8047B7047D7
S21440419010140E4000040E4080B483B000AF786028
S2144041A0184A184B1B6A43F45C1343F00803136227
S2144041B000BF144B9B6E03F40033002BF9D011491B
S2144041C0104B1B6A23F45C1323F070037A68134386
S2144041D043F45C130B6200BF0A4B9B6E03F4003340
S2144041E0002BF9D0074A074B1B6A23F09B7323F436
S2144041F0803343F45C13136200BF0C37BD465DF852
S214404200047B704700040E4080B483B000AF7860F3
S21440421039607B68002B08D01649164B1B6A164A35
S2144042201A40164B13430B621EE01249114B1B6A91
S21440423023F45C1323F003033A68120292B213434A
S21440424043F45C1343F001030B6200BF094B9B6EC3
S21440425003F00103002BF9D0064A064B1B6A43F0D5
S2144042609B7343F48033136200BF0C37BD465DF842
S214404270047B704700040E40FCFFC8FE0200370176
S21440428080B400AF044B9B6E03F480331846BD46A3
S2144042905DF8047B704700BF00040E4080B400AF5A
S2144042A0034B00229A6200BFBD465DF8047B704710
S2144042B000040E4080B400AF044B9B6E03F0020334
S2144042C01846BD465DF8047B704700BF00040E40AC
S2144042D080B400AF034B0022DA6200BFBD465DF8F3
S2144042E0047B704700040E4080B400AF044B9B6EC6
S2144042F003F004031846BD465DF8047B704700BFD4
S21440430000040E4080B483B000AF78607B68322BE8
S21440431001D901232FE07B681F2B13D8194B9A69CC
S21440432001217B6801FA03F31A4001217B6801FAF8
S21440433003F39A421ED0134A01217B6801FA03F325
S214404340136117E07B68203B7B600E4BD3F8082157
S21440435001217B6801FA03F31A4001217B6801FAC8
S21440436003F39A4206D0074A01217B6801FA03F319
S214404370C2F80031002318460C37BD465DF8047B72
S214404380704700BF00040E4080B485B000AF786030
S214404390396012493B6843F002027B68103341F8AB
S2144043A023204FF40063FB6007E0FB68002B01D13D
S2144043B001230DE0FB68013BFB60084B9A6E4FF40F
S2144043C080717B6801FA03F31340002BEDD0002385
S2144043D018461437BD465DF8047B704700040E400F
S2144043E080B485B000AF7860396012493B6843F0CE
S2144043F004027B68103341F823204FF40063FB60CF
S21440440007E0FB68002B01D101230DE0FB68013B70
S214404410FB60084B9A6E4FF480717B6801FA03F399
S2144044201340002BEDD0002318461437BD465DF8E8
S214404430047B704700040E4080B483B000AF7860C1
S214404440064A4FF480717B6801FA03F3136000BF9D
S2144044500C37BD465DF8047B704700BF00040E4035
S21440446080B483B000AF7860064A4FF480717B68B2
S21440447001FA03F3536000BF0C37BD465DF8047B7A
S214404480704700BF00040E4080B483B000AF786031
S214404490044A7B68136000BF0C37BD465DF8047B5A
S2144044A0704700BF6C01002080B483B000AF1B4B48
S2144044B01B6F7B607B6823F4C0037B60184B1B68D4
S2144044C07A6813437B60154A7B681367134A134B1D
S2144044D01B6A43F45C1343F00403136200BF0F4BA4
S2144044E09B6E03F00803002BF9D000237B6003E0AB
S2144044F000BF7B6801337B607B68B3F5FA7FF7D3F8
S21440450000BF064B1B6A03F00803002BF9D000BF20
S2144045100C37BD465DF8047B704700BF00040E4074
S2144045206C01002090B599B000AF78607B68013B85
S214404530042B00F2AF8101A252F823F0514540000F
S2144045405145400071454000714540007348400069
S214404550774A774B1B6923F004031361754B01229E
S2144045601A70BFF35F8F62B6BFF34F8F30BF91E1D3
S2144045707B68032B03D100206F4B984703E04FF432
S21440458000106D4B984772B6BFF35F8F694B0022A1
S2144045901A706A4B01221A707B68042B0CBF0123E9
S2144045A00023DAB207F11C033B6407F11803FB63F0
S2144045B007F11403BB6307F110037B6307F10C0399
S2144045C03B63134687F82F305D4B1B6ABB625C4BE0
S2144045D01B6B7B625B4B1B683B623B6C002B02D0C9
S2144045E03B6CBA6A1A60FB6B002B03D0544B9A6A3A
S2144045F0FB6B1A60BB6B002B02D0BB6B00221A60B1
S2144046007B6B002B02D07B6B7A6A1A603B6B002B6D
S21440461002D03B6B3A6A1A60494ABB6A43F45C1361
S21440462043F0080313627B6A03F00303012B0ED9A1
S2144046307B6A23F0030343F001037B62404A7B6AB4
S21440464013633F4B9B6E03F00803002BF9D07B6A45
S21440465003F07003002B0CD07B6A23F070037B6260
S214404660374A7B6A1363364B9B6E03F00803002B76
S214404670F9D0354B9847324B9B6E03F40033002BF2
S214404680F9D0304A3B6A23F4706343F48073136076
S2144046902B492B4B1A6A2D4B134043F45C1343F0C3
S2144046A020030B62264B9B6E03F48033002BF9D01D
S2144046B097F82F30002B09D0214A214B1B6A23F450
S2144046C05C1323F0010343F45C131362194B01227D
S2144046D01A70BFF35F8F62B61D4B984772B6BFF332
S2144046E05F8F144B00221A70FC69B86979693A6981
S2144046F0FB68FC65B86579653A65FB640023BB6476
S214404700FB6D03F00203002B28D00D490C4B1B6AAF
S214404710104A1A40104B13430B62094A084B1B6A57
S21440472023F45C1323F0780343F45C13136250E0E5
S21440473000ED00E0140100208944400024040020DD
S21440474000040E40000A0E409D424000DFFFC8FEB7
S214404750A9444000FCFFC8FE02003701FB6D03F091
S2144047600103002B35D04D4B1B6A03F00103002B91
S21440477011D14A4A494B1B6A23F45C1323F00303C6
S21440478043F45C1343F001031362444B9B6E03F007
S2144047900103002BF9D0414B1B6A03F08073002BBA
S2144047A00DD13E4A3D4B1B6A43F09B7343F4803326
S2144047B013623A4B9B6E03F48033002BF9D0374A92
S2144047C0364B1B6A23F45C1323F0780343F45C13E4
S2144047D01362BA6D324B1340002B06D02F4ABB6D86
S2144047E09362BB6C43F00203BB643B6D03F0030370
S2144047F0022B05D1294B9B6E03F00203002BF9D008
S214404800264B1B6B7B6425497B6C23F070023B6D0B
S21440481003F0700313430B63204B9B6E03F00803B7
S214404820002BF9D01F4AFB6C13601C4A3B6D136388
S2144048301A4B9B6E03F00803002BF9D0174B9A6E69
S214404840BB6C1340002BF9D0174B00221A70174B45
S2144048501B68002B05D0154B1B689847134B00224E
S2144048601A60134B01221A70BFF35F8F62B600BF07
S21440487010E0104A0F4B1B6943F0040313610E4BC4
S2144048800E4A1A600A4B01221A70BFF35F8F62B657
S21440489030BF00BF00BF6437BD4690BD00040E4029
S2144048A00000FF1F000A0E402404002028040020B9
S2144048B01401002000ED00E010140E40040000A596
S2144048C080B483B000AF78607B68DB6818460C37EE
S2144048D0BD465DF8047B704780B485B000AF786015
S2144048E039607B68DB6923F4F053FB603B685B020E
S2144048F003F4F052FB68134343F0B44343F480732D
S2144049007A68D36100BF1437BD465DF8047B7047B4
S21440491080B487B000AFF860B9607A60FA68BB6868
S2144049209B0113447B617B6902221A607B694FF0CE
S214404930FF329A627B691B6A7B697A685A6000BF5D
S2144049401C37BD465DF8047B704780B483B000AF2B
S214404950786039607A683B689B01134405221A6088
S21440496000BF0C37BD465DF8047B704780B485B009
S21440497000AFF860B9607A60FA68BB689B01134480
S2144049801C337A681A6000BF1437BD465DF8047B56
S214404990704780B487B000AFF860B9607A60FA6854
S2144049A0BB689B0113447B617B697A685A6200BF8F
S2144049B01C37BD465DF8047B704780B485B000AFB9
S2144049C0786039607A683B689B011344FB60FB68FB
S2144049D0DB6A18461437BD465DF8047B704780B4E2
S2144049E085B000AF786039607A683B689B011344B5
S2144049F0FB60FB681B6A18461437BD465DF8047BAF
S214404A00704780B483B000AF78607B6808221A6035
S214404A107B6820221A607B6804221A6000BF0C372D
S214404A20BD465DF8047B704780B584B000AF7860C3
S214404A3039600023FB607B684FF0FF329A627B68E8
S214404A401B6A78680E4B984778680E4B98473B68C9
S214404A5059683B681B681A4678680B4B984703466C
S214404A60012B01D10123FB603B685B7A012B02D10D
S214404A707B6840221A60FB6818461037BD4680BDEA
S214404A80314E4000034A40008D4A400080B489B011
S214404A9000AFF860B9607A600023FB61BB68344AB7
S214404AA0934201D901235DE0BB68324A934237D92D
S214404AB07B68314AA2FB03239B0B033B7B61BA68AE
S214404AC02E4B13449B007A68B2FBF3F3033B3B61E7
S214404AD005E0FB690133FB617B695B087B617B69B1
S214404AE0FF2B09D9FB69062BF3D905E0FB69013397
S214404AF0FB613B695B083B613B69FF2B02D9FB6965
S214404B00062BF3D97B69DAB23B691B029BB21A4388
S214404B10FB691B0403F4E0231A43FB681A6120E098
S214404B20BB685B007A68B2FBF3F3033BBB6105E00E
S214404B30FB690133FB61BB695B08BB61BB69FF2B4B
S214404B4002D9FB69062BF3D9BB69DAB2BB691B02F3
S214404B509BB21A43FB691B0403F4E0231A43FB6829
S214404B601A61002318462437BD465DF8047B70471B
S214404B70801A060000DC0500F11976050012FD3F9C
S214404B8080B485B000AF786039603B68002B01D1B7
S214404B9000231DE07B681B78FB603B68012B09DD2A
S214404BA0FB681B02FB607B6801331B781A46FB6878
S214404BB01343FB603B68022B09DDFB681B02FB606E
S214404BC07B6802331B781A46FB681343FB60FB681E
S214404BD018461437BD465DF8047B704780B588B0EC
S214404BE000AF786039603B68DB68FB613B689B6878
S214404BF0BB610023FB7547F230533B61FB69002BDA
S214404C0001D1012369E07B6800225A603B681B7C27
S214404C101B0403F4FE023B685B681B0203F440730C
S214404C20134343F480527B685A607B680022DA6004
S214404C303A683B685B68194610462A4B98470246D6
S214404C407B68DA60FB69012B05D17B6803221A601A
S214404C500123FB7534E07B6801221A600023FB7554
S214404C602EE07B681B6AFB60FB6803F48073002BB6
S214404C7001D0052331E03B695A1E3A61002B01D131
S214404C8009232AE0FB69012B07D1FB7D002B04D1C9
S214404C907B6802221A600123FB75FB6803F002035F
S214404CA0002B00D10CE0BB695A1CBA617A68126BC3
S214404CB0D2B21A70FB69013BFB6147F230533B614D
S214404CC0FB69002BCDD100BF7B681B6A03F0010354
S214404CD0002BF9D07B681B6A002318462037BD4658
S214404CE080BD00BF814B400080B586B000AF786085
S214404CF039603B68DB687B613B689B683B617B69EE
S214404D00002B01D1012356E07B6800225A603B68A5
S214404D101B7C1B0403F4FE023B685B681B0203F427
S214404D2040731A437B685A607B680022DA603A68B0
S214404D303B685B6819461046214B984702467B689D
S214404D40DA6019E07B681B6AFB60FB6803F48073DB
S214404D50002B01D005232EE0FB6803F00403002B54
S214404D6000D109E03B695A1C3A611B781A467B68B9
S214404D705A637B69013B7B617B69002BE2D17B6890
S214404D801B6AFB60FB6803F48073002B01D005238D
S214404D9011E0FB6803F00403002B00D1EFE700BFEF
S214404DA07B6802221A6000BF7B681B6A03F001031F
S214404DB0002BF9D0002318461837BD4680BD00BFEB
S214404DC0814B400080B483B000AF786039607B6828
S214404DD03A685A6200BF0C37BD465DF8047B7047A0
S214404DE080B483B000AF786039607B683A689A6276
S214404DF07B681B6A00BF0C37BD465DF8047B704776
S214404E0080B483B000AF78607B681B6A18460C3766
S214404E10BD465DF8047B704780B483B000AF7860D1
S214404E207B68DB6A18460C37BD465DF8047B7047E6
S214404E3080B483B000AF78607B6880221A607B685D
S214404E401B6B00BF0C37BD465DF8047B7047000007
S214404E5080B485B000AF78600023FB607B680D4A65
S214404E60934202D10C4BFB600CE07B680B4A9342AA
S214404E7002D10B4BFB6005E07B680A4A934201D1A6
S214404E80094BFB60FB6818461437BD465DF8047B4B
S214404E90704700BF0006024000070240004602403E
S214404EA000470240008601400087014080B489B038
S214404EB000AFF860B9607A60BB681A017B689A42B6
S214404EC002D81023FB6101E00823FB617B68DA000F
S214404ED0FB69B96801FB03F35B081A44FB69B968D0
S214404EE001FB03F3B2FBF3F3BB61BB69DB087B61F9
S214404EF0BB6903F007033B617B69002B03D07B69EA
S214404F00B3F5803F01D301230FE0FB69082B05D1A1
S214404F10FB685B6843F40022FB685A603B691A04EE
S214404F207B691A43FB681A62002318462437BD463D
S214404F305DF8047B7047000080B582B000AF7860B3
S214404F4078680D4B98477B6800225A607B68002241
S214404F505A627B6800229A627868084B984778685D
S214404F60074B98477868074B98477868064B9847AA
S214404F7000BF0837BD4680BD195140002B50400049
S214404F805F504000795040009550400080B584B056
S214404F9000AFF860B9607A60F8681A4B98471A4BC9
S214404FA000221A60BB68002B09D0BB681B687A6871
S214404FB01946F868154B98470346002B01D0012345
S214404FC01BE0BB685A68BB689B681A43BB681B6992
S214404FD01A43BB68DB681A430B4B1B6813430A4AE9
S214404FE01360094B1B68084A1360FB685A68064BF7
S214404FF01B681A43FB685A60002318461037BD46A4
S21440500080BD00BF394F40002C040020AD4E40000C
S21440501080B483B000AF78607B6840221A6000BFDF
S2144050200C37BD465DF8047B704780B483B000AF54
S21440503078607B6888221A6000BF0C37BD465DF8F2
S214405040047B704780B483B000AF78607B681022E2
S2144050501A6000BF0C37BD465DF8047B704780B4CD
S21440506083B000AF78607B6824221A6000BF0C379C
S214405070BD465DF8047B704780B483B000AF78606F
S2144050807B684FF480721A6000BF0C37BD465DF8EF
S214405090047B704780B483B000AF78607B684FF481
S2144050A000221A6000BF0C37BD465DF8047B70478F
S2144050B080B483B000AF786039607B685B6903F08A
S2144050C00203002B01D1012305E03B68C3F308022D
S2144050D07B68DA61002318460C37BD465DF8047BD2
S2144050E0704780B483B000AF786039607B685B6996
S2144050F003F00103002B01D1012306E07B689B6986
S214405100C3F308023B681A60002318460C37BD46B6
S2144051105DF8047B7047000080B483B000AF7860D1
S2144051207B68044AC3F8E42000BF0C37BD465DF8F0
S214405130047B70470041535580B483B000AFEFF313
S21440514010837B607B68002B0CBF01230023DBB2FF
S2144051503B6072B6BFF35F8F044B00221A703B6809
S21440516018460C37BD465DF8047B70471401002096
S21440517080B483B000AF78607B68002B14BF0123F7
S2144051800023DBB218460C37BD465DF8047B7047FB
S21440519080B582B000AF78607868074B9847034682
S2144051A0002B05D0054B01221A70BFF35F8F62B605
S2144051B000BF0837BD4680BD715140001401002035
S2144051C080B584B000AF254BFB60254BBB60FA68CA
S2144051D0BB689A420CD007E0BB681A1DBA60FA68F2
S2144051E0111DF96012681A60BB681E4A9342F3D3D9
S2144051F01D4BBB6004E0BB681A1DBA6000221A60F3
S214405200BB681A4A9342F6D3194BFB60194AFB68AF
S21440521023F07F039360184B98477860174A174BE4
S2144052201B6843F470031360BFF34F8FBFF36F8F59
S2144052307868134B9847FB68B3F1005F09D3FB6867
S214405240104A934205D80B4A0A4B9B6843F00053DA
S21440525093600D4B98470D4B9847FEE798CF40001C
S21440526000000020480300204803002030090020AA
S2144052700000400000ED00E03951400088ED00E0BD
S21440528091514000FF7F0220058B4000B501400051
S21440529080B400AFFEE7000080B400AF414B1B6B0C
S2144052A003F00303012B14D0012B02D3022B38D07A
S2144052B059E03D4B5B6903F08003002B04D03B4B29
S2144052C04FF400421A604EE0384B4FF4FA421A60F0
S2144052D049E0344B1B6A03F08073002B03D0334BFA
S2144052E0334A1A603FE0314B324A1A602D4B1B6AF4
S2144052F003F07003102B04D0202B08D0002B0ED0C8
S2144053000EE02A4B1B685B00284A136008E0274BD8
S2144053101A6813465B001344244A136000E000BF3B
S21440532021E0214B5B6903F08003002B04D01F4B28
S2144053304FF400421A6003E01C4B4FF4FA421A60E6
S214405340184B1B6B03F00303022B0BD1154B9B6AC8
S2144053501B0CC3F30C030133144A126802FB03F31D
S214405360124A136000BF0F4B1B6B03F07003702B89
S21440537008D10E4B1B68104AA2FB03235B080B4A5E
S21440538013600AE0074B1B6B1B0903F00703074A31
S214405390126822FA03F3054A136000BFBD465DF863
S2144053A0047B704700040E4010140E40700100202D
S2144053B0001BB70000127A00ABAAAAAA80B483B03A
S2144053C000AF78607B68194A934204D8184B4FF078
S2144053D080621A6023E07B68164A934203D8144BD7
S2144053E0154A1A601BE07B68144A934203D8104B58
S2144053F0134A1A6013E07B68124A934203D80C4B58
S214405400114A1A600BE07B68104A934204D8084B56
S2144054104FF004221A6002E0054B0D4A1A6000BFA6
S2144054200C37BD465DF8047B704700BFFF2C31014A
S214405430000A0E40FF59620200010004FF869303F3
S21440544000020004FFB3C40400030004FFE0F505B7
S2144054500005000480B485B000AF7860104BFB6058
S214405460104B1B68002B02D10E4B0F4A1A600D4B97
S2144054701B68BB60BA687B681A44FB689A4202DDC8
S2144054804FF0FF3306E0074B1A687B681344054A23
S2144054901360BB6818461437BD465DF8047B7047FA
S2144054A0FC7F0220300400203039002080B483B0D6
S2144054B000AF78604FF0FF3318460C37BD465DF8B6
S2144054C0047B704780B483B000AF786039603B6837
S2144054D04FF400525A60002318460C37BD465DF81C
S2144054E0047B704780B483B000AF786001231846D1
S2144054F00C37BD465DF8047B704780B485B000AF7E
S214405500F860B9607A60002318461437BD465DF8E7
S214405510047B704780B584B000AFF860B960114630
S2144055201A460B46FB711346BB71FB68C9229A8329
S214405530FB68FA795A76FB68BA7983F82020FB68CC
S2144055403A7E83F82120FB688022DA80FB680222BC
S2144055505A71FB683B4A1A633B4B1A68FB68DA622F
S2144055603A4B98470246FB685A63FB68384A1A65C6
S214405570FB68384A5A65FB68374A9A63FB68374A7D
S214405580DA63FB68364A1A64FB68364A5A64FB6834
S214405590354A9A64FB68354ADA64FB68344A9A6549
S2144055A0FB68344ADA65FB68334A1A66FB68334A56
S2144055B05A66FB68324A9A66FB680022C3F8B020F7
S2144055C0FB68304AC3F8BC20FB682F4AC3F8C020AB
S2144055D0FB682E4A1A67FB682D4A9A67FB682D4A75
S2144055E0C3F88820FB682C4AC3F88C20FB682B4AFB
S2144055F0C3F89020FB682A4AC3F89420FB68294ADF
S214405600C3F8A020FB68284AC3F8A420FB68274AB2
S214405610DA66FB68264ADA67FB684FF4E1725A841A
S214405620FB6800229A77FB68BA681A60BA79BB684A
S2144056300632F96843F82210002318461037BD4654
S21440564080BD00BF90C4400074010020D956400081
S214405650C7564000B55640005D6440009164400027
S214405660CD6440004165400055654000FD63400004
S214405670515F40000D5E4000A15F40005960400011
S214405680D9604000456C4000A56C4000A1624000D7
S214405690B9634000C96A4000056B40005162400053
S2144056A065614000A5654000B9664000A5694000B8
S2144056B0F969400080B400AF40F66A131846BD460C
S2144056C05DF8047B704780B400AF1C231846BD4687
S2144056D05DF8047B7047000080B400AF024B18466C
S2144056E0BD465DF8047B704774C4400080B483B008
S2144056F000AF0346FB7100BF0C37BD465DF8047B28
S214405700704780B483B000AF786000BF0C37BD46AA
S2144057105DF8047B7047000090B589B002AFF86032
S214405720B9603B601346FB710123FB753B68002B59
S21440573019D007F11002FB791946B8680C4B984708
S2144057400346FB75FB7D002B0DD17A8ABB689A8099
S2144057503A7C7B7CF97900933C680B46B968F868DC
S214405760A0470346FB75FB7D18461C37BD4690BDDB
S2144057704D26400080B485B000AF78603960002385
S214405780FB737B681A793B681A707B681A893B689A
S2144057905A807B685A893B689A807B689A893B68BE
S2144057A0DA803B6800229A60FB7B18461437BD4679
S2144057B05DF8047B7047000080B584B000AF786029
S2144057C039600023FB733B681B7819467868314B79
S2144057D098470346FB73FB7B002B0BD13B681A783C
S2144057E07B681A713B685B88194678682A4B9847ED
S2144057F00346FB73FB7B002B12D17B689B8B652B90
S2144058000ED13B689B8819467868244B98470346D8
S214405810FB73FB7B002B03D13B689A887B685A81DD
S214405820FB7B002B07D13B68DB88194678681C4B0E
S21440583098470346FB73FB7B002B0FD13B68DA8807
S2144058407B689A817B689B8BC92B07D13B689B689A
S21440585019467868134B98470346FB73FB7B002B2F
S21440586007D13B685B7B194678680F4B98470346E1
S214405870FB73FB7B002B07D13B681B7B1946786884
S2144058800A4B98470346FB73FB7B18461037BD46CA
S21440589080BD00BFD3594000B15A4000E55A400091
S2144058A0155A4000995C4000A15D40000D5D4000E7
S2144058B080B584B000AF78607868044B984703465C
